{
  "_format": "hh-sol-artifact-1",
  "contractName": "PixelPortal",
  "sourceName": "contracts/PixelPortal.sol",
  "abi": [
    {
      "inputs": [],
      "stateMutability": "payable",
      "type": "constructor"
    },
    {
      "anonymous": false,
      "inputs": [
        {
          "indexed": true,
          "internalType": "address",
          "name": "from",
          "type": "address"
        },
        {
          "indexed": false,
          "internalType": "uint256",
          "name": "timestamp",
          "type": "uint256"
        },
        {
          "indexed": false,
          "internalType": "string",
          "name": "color1",
          "type": "string"
        },
        {
          "indexed": false,
          "internalType": "string",
          "name": "color2",
          "type": "string"
        }
      ],
      "name": "NewPixel",
      "type": "event"
    },
    {
      "inputs": [],
      "name": "getAllPixels",
      "outputs": [
        {
          "components": [
            {
              "internalType": "address",
              "name": "pixeler",
              "type": "address"
            },
            {
              "internalType": "string",
              "name": "color1",
              "type": "string"
            },
            {
              "internalType": "string",
              "name": "color2",
              "type": "string"
            },
            {
              "internalType": "uint256",
              "name": "timestamp",
              "type": "uint256"
            }
          ],
          "internalType": "struct PixelPortal.Pixel[]",
          "name": "",
          "type": "tuple[]"
        }
      ],
      "stateMutability": "view",
      "type": "function"
    },
    {
      "inputs": [],
      "name": "getTotalPixels",
      "outputs": [
        {
          "internalType": "uint256",
          "name": "",
          "type": "uint256"
        }
      ],
      "stateMutability": "view",
      "type": "function"
    },
    {
      "inputs": [
        {
          "internalType": "address",
          "name": "",
          "type": "address"
        }
      ],
      "name": "lastPixeliseAt",
      "outputs": [
        {
          "internalType": "uint256",
          "name": "",
          "type": "uint256"
        }
      ],
      "stateMutability": "view",
      "type": "function"
    },
    {
      "inputs": [
        {
          "internalType": "string",
          "name": "_color1",
          "type": "string"
        },
        {
          "internalType": "string",
          "name": "_color2",
          "type": "string"
        }
      ],
      "name": "pixelise",
      "outputs": [],
      "stateMutability": "nonpayable",
      "type": "function"
    },
    {
      "inputs": [
        {
          "internalType": "uint256",
          "name": "",
          "type": "uint256"
        }
      ],
      "name": "pixels",
      "outputs": [
        {
          "internalType": "address",
          "name": "pixeler",
          "type": "address"
        },
        {
          "internalType": "string",
          "name": "color1",
          "type": "string"
        },
        {
          "internalType": "string",
          "name": "color2",
          "type": "string"
        },
        {
          "internalType": "uint256",
          "name": "timestamp",
          "type": "uint256"
        }
      ],
      "stateMutability": "view",
      "type": "function"
    },
    {
      "inputs": [],
      "name": "totalPixels",
      "outputs": [
        {
          "internalType": "uint256",
          "name": "",
          "type": "uint256"
        }
      ],
      "stateMutability": "view",
      "type": "function"
    }
  ],
  "bytecode": "0x60806040526200004f6040518060400160405280601f81526020017f536d61727420636f6e7472616374206265636f6d696e6720736d6172746572008152506200005560201b6200072b1760201c565b620001e9565b620000f5816040516024016200006c919062000162565b6040516020818303038152906040527f41304fac000000000000000000000000000000000000000000000000000000007bffffffffffffffffffffffffffffffffffffffffffffffffffffffff19166020820180517bffffffffffffffffffffffffffffffffffffffffffffffffffffffff8381831617835250505050620000f860201b60201c565b50565b60008151905060006a636f6e736f6c652e6c6f679050602083016000808483855afa5050505050565b60006200012e8262000186565b6200013a818562000191565b93506200014c818560208601620001a2565b6200015781620001d8565b840191505092915050565b600060208201905081810360008301526200017e818462000121565b905092915050565b600081519050919050565b600082825260208201905092915050565b60005b83811015620001c2578082015181840152602081019050620001a5565b83811115620001d2576000848401525b50505050565b6000601f19601f8301169050919050565b61111e80620001f96000396000f3fe608060405234801561001057600080fd5b50600436106100625760003560e01c8063594d7c481461006757806370d72d63146100855780638da7f232146100a3578063ab95cd1a146100d6578063dbff126a146100f4578063e73208a914610124575b600080fd5b61006f610140565b60405161007c9190610d57565b60405180910390f35b61008d610146565b60405161009a9190610c99565b60405180910390f35b6100bd60048036038101906100b89190610a59565b610329565b6040516100cd9493929190610c46565b60405180910390f35b6100de610499565b6040516100eb9190610d57565b60405180910390f35b61010e600480360381019061010991906109c4565b6104a2565b60405161011b9190610d57565b60405180910390f35b61013e600480360381019061013991906109ed565b6104ba565b005b60005481565b60606001805480602002602001604051908101604052809291908181526020016000905b8282101561032057838290600052602060002090600402016040518060800160405290816000820160009054906101000a900473ffffffffffffffffffffffffffffffffffffffff1673ffffffffffffffffffffffffffffffffffffffff1673ffffffffffffffffffffffffffffffffffffffff1681526020016001820180546101f390610f47565b80601f016020809104026020016040519081016040528092919081815260200182805461021f90610f47565b801561026c5780601f106102415761010080835404028352916020019161026c565b820191906000526020600020905b81548152906001019060200180831161024f57829003601f168201915b5050505050815260200160028201805461028590610f47565b80601f01602080910402602001604051908101604052809291908181526020018280546102b190610f47565b80156102fe5780601f106102d3576101008083540402835291602001916102fe565b820191906000526020600020905b8154815290600101906020018083116102e157829003601f168201915b505050505081526020016003820154815250508152602001906001019061016a565b50505050905090565b6001818154811061033957600080fd5b90600052602060002090600402016000915090508060000160009054906101000a900473ffffffffffffffffffffffffffffffffffffffff169080600101805461038290610f47565b80601f01602080910402602001604051908101604052809291908181526020018280546103ae90610f47565b80156103fb5780601f106103d0576101008083540402835291602001916103fb565b820191906000526020600020905b8154815290600101906020018083116103de57829003601f168201915b50505050509080600201805461041090610f47565b80601f016020809104026020016040519081016040528092919081815260200182805461043c90610f47565b80156104895780601f1061045e57610100808354040283529160200191610489565b820191906000526020600020905b81548152906001019060200180831161046c57829003601f168201915b5050505050908060030154905084565b60008054905090565b60026020528060005260406000206000915090505481565b4263018b8200600260003373ffffffffffffffffffffffffffffffffffffffff1673ffffffffffffffffffffffffffffffffffffffff1681526020019081526020016000205461050a9190610e73565b1061054a576040517f08c379a000000000000000000000000000000000000000000000000000000000815260040161054190610d37565b60405180910390fd5b42600260003373ffffffffffffffffffffffffffffffffffffffff1673ffffffffffffffffffffffffffffffffffffffff168152602001908152602001600020819055506000808154809291906105a090610faa565b91905055506105e66040518060400160405280600e81526020017f257320706978656c6973652025730000000000000000000000000000000000008152503384846107c4565b600160405180608001604052803373ffffffffffffffffffffffffffffffffffffffff16815260200184815260200183815260200142815250908060018154018082558091505060019003906000526020600020906004020160009091909190915060008201518160000160006101000a81548173ffffffffffffffffffffffffffffffffffffffff021916908373ffffffffffffffffffffffffffffffffffffffff16021790555060208201518160010190805190602001906106ab92919061088f565b5060408201518160020190805190602001906106c892919061088f565b506060820151816003015550503373ffffffffffffffffffffffffffffffffffffffff167f42919064c46cd7ea1893c7c9ca9ae7dfe7ac720f47e90c67aa3fc2d87fe6a99642848460405161071f93929190610d72565b60405180910390a25050565b6107c18160405160240161073f9190610cbb565b6040516020818303038152906040527f41304fac000000000000000000000000000000000000000000000000000000007bffffffffffffffffffffffffffffffffffffffffffffffffffffffff19166020820180517bffffffffffffffffffffffffffffffffffffffffffffffffffffffff8381831617835250505050610866565b50565b610860848484846040516024016107de9493929190610cdd565b6040516020818303038152906040527f245986f2000000000000000000000000000000000000000000000000000000007bffffffffffffffffffffffffffffffffffffffffffffffffffffffff19166020820180517bffffffffffffffffffffffffffffffffffffffffffffffffffffffff8381831617835250505050610866565b50505050565b60008151905060006a636f6e736f6c652e6c6f679050602083016000808483855afa5050505050565b82805461089b90610f47565b90600052602060002090601f0160209004810192826108bd5760008555610904565b82601f106108d657805160ff1916838001178555610904565b82800160010185558215610904579182015b828111156109035782518255916020019190600101906108e8565b5b5090506109119190610915565b5090565b5b8082111561092e576000816000905550600101610916565b5090565b600061094561094084610ddc565b610db7565b90508281526020810184848401111561095d57600080fd5b610968848285610f05565b509392505050565b60008135905061097f816110ba565b92915050565b600082601f83011261099657600080fd5b81356109a6848260208601610932565b91505092915050565b6000813590506109be816110d1565b92915050565b6000602082840312156109d657600080fd5b60006109e484828501610970565b91505092915050565b60008060408385031215610a0057600080fd5b600083013567ffffffffffffffff811115610a1a57600080fd5b610a2685828601610985565b925050602083013567ffffffffffffffff811115610a4357600080fd5b610a4f85828601610985565b9150509250929050565b600060208284031215610a6b57600080fd5b6000610a79848285016109af565b91505092915050565b6000610a8e8383610bbe565b905092915050565b610a9f81610ec9565b82525050565b610aae81610ec9565b82525050565b6000610abf82610e1d565b610ac98185610e40565b935083602082028501610adb85610e0d565b8060005b85811015610b175784840389528151610af88582610a82565b9450610b0383610e33565b925060208a01995050600181019050610adf565b50829750879550505050505092915050565b6000610b3482610e28565b610b3e8185610e51565b9350610b4e818560208601610f14565b610b5781611080565b840191505092915050565b6000610b6d82610e28565b610b778185610e62565b9350610b87818560208601610f14565b610b9081611080565b840191505092915050565b6000610ba8600d83610e62565b9150610bb382611091565b602082019050919050565b6000608083016000830151610bd66000860182610a96565b5060208301518482036020860152610bee8282610b29565b91505060408301518482036040860152610c088282610b29565b9150506060830151610c1d6060860182610c28565b508091505092915050565b610c3181610efb565b82525050565b610c4081610efb565b82525050565b6000608082019050610c5b6000830187610aa5565b8181036020830152610c6d8186610b62565b90508181036040830152610c818185610b62565b9050610c906060830184610c37565b95945050505050565b60006020820190508181036000830152610cb38184610ab4565b905092915050565b60006020820190508181036000830152610cd58184610b62565b905092915050565b60006080820190508181036000830152610cf78187610b62565b9050610d066020830186610aa5565b8181036040830152610d188185610b62565b90508181036060830152610d2c8184610b62565b905095945050505050565b60006020820190508181036000830152610d5081610b9b565b9050919050565b6000602082019050610d6c6000830184610c37565b92915050565b6000606082019050610d876000830186610c37565b8181036020830152610d998185610b62565b90508181036040830152610dad8184610b62565b9050949350505050565b6000610dc1610dd2565b9050610dcd8282610f79565b919050565b6000604051905090565b600067ffffffffffffffff821115610df757610df6611051565b5b610e0082611080565b9050602081019050919050565b6000819050602082019050919050565b600081519050919050565b600081519050919050565b6000602082019050919050565b600082825260208201905092915050565b600082825260208201905092915050565b600082825260208201905092915050565b6000610e7e82610efb565b9150610e8983610efb565b9250827fffffffffffffffffffffffffffffffffffffffffffffffffffffffffffffffff03821115610ebe57610ebd610ff3565b5b828201905092915050565b6000610ed482610edb565b9050919050565b600073ffffffffffffffffffffffffffffffffffffffff82169050919050565b6000819050919050565b82818337600083830152505050565b60005b83811015610f32578082015181840152602081019050610f17565b83811115610f41576000848401525b50505050565b60006002820490506001821680610f5f57607f821691505b60208210811415610f7357610f72611022565b5b50919050565b610f8282611080565b810181811067ffffffffffffffff82111715610fa157610fa0611051565b5b80604052505050565b6000610fb582610efb565b91507fffffffffffffffffffffffffffffffffffffffffffffffffffffffffffffffff821415610fe857610fe7610ff3565b5b600182019050919050565b7f4e487b7100000000000000000000000000000000000000000000000000000000600052601160045260246000fd5b7f4e487b7100000000000000000000000000000000000000000000000000000000600052602260045260246000fd5b7f4e487b7100000000000000000000000000000000000000000000000000000000600052604160045260246000fd5b6000601f19601f8301169050919050565b7f5761697420333030206461797300000000000000000000000000000000000000600082015250565b6110c381610ec9565b81146110ce57600080fd5b50565b6110da81610efb565b81146110e557600080fd5b5056fea26469706673582212209d8b1bbcf3f73ce49c431c92e512364021900451b255d3006c86346206c9eda864736f6c63430008040033",
  "linkReferences": {},
  "deployedLinkReferences": {}
}